:100000000C942A000C9447000C9447000C94470071
:100010000C9447000C9447000C9447000C94470044
:100020000C9447000C9447000C9447000C94470034
:100030000C9447000C9447000C9447000C94470024
:100040000C94CE060C9447000C9447000C94470087
:100050000C94470011241FBECFE5D8E0DEBFCDBF12
:1000600011E0A0E6B0E0E6E3F1E502C005900D92F4
:10007000AE3FB107D9F712E0AEEFB1E001C01D927B
:10008000AB30B107E1F70E94BC220C9499280C9484
:100090000000EF92FF920F931F937B018C0120E0F1
:1000A00030E040E05FE40E94490388238CF0C801FF
:1000B000B70120E030E040E05FE40E94C1010E940F
:1000C000A9039B01AC01205030404040504806C07D
:1000D000C801B7010E94A9039B01AC01B901CA0183
:1000E0001F910F91FF90EF900895A0E0B0E0EBE733
:1000F000F0E00C946228DC012B01FA019C91923013
:1001000008F439C1EB018881823008F433C194309E
:1001100069F4843009F02FC111969C91119789815F
:10012000981709F428C1AAEDB1E025C1843009F47B
:1001300021C18230A9F4923009F01DC19A01AD01AC
:1001400088E0EA010990AE01E90109929E0181501F
:10015000C1F7E201898111969C918923818308C1AD
:10016000923009F407C112962D903C901397EB0141
:100170008A819B811496AD90BD90CD90DC901797AD
:10018000EC80FD800E811F819101281B390BB90184
:1001900037FF04C066277727621B730B6032710537
:1001A0000CF061C0121613066CF537014801062EDB
:1001B00004C096948794779467940A94D2F721E0C8
:1001C00030E040E050E004C0220F331F441F551FB1
:1001D0006A95D2F721503040404050402E213F21B7
:1001E00040235123211531054105510521F021E01E
:1001F00030E040E050E079018A01E628F72808293C
:1002000019293CC0232BD1F1260E371E350146019A
:10021000062E04C096948794779467940A94D2F734
:1002200021E030E040E050E004C0220F331F441FC3
:10023000551F6A95D2F721503040404050402A2146
:100240003B214C215D21211531054105510521F04E
:1002500021E030E040E050E059016A01A628B728CB
:10026000C828D9280BC0821593052CF01C01AA249C
:10027000BB24650103C0EE24FF24870111969C91E5
:10028000D20111968C91981709F445C0992339F041
:10029000A80197012A193B094C095D0906C0A6016E
:1002A00095012E193F09400B510B57FD08C01182D3
:1002B0003382228224833583468357831DC081E0A5
:1002C00081833382228288279927DC01821B930B4A
:1002D000A40BB50B84839583A683B7830DC0220F2F
:1002E000331F441F551F24833583468357838281E0
:1002F000938101979383828324813581468157813D
:10030000DA01C9010197A109B1098F5F9F4FAF4F72
:10031000BF4328F30BC0918333822282EA0CFB1C7B
:100320000C1D1D1DE482F5820683178383E0808304
:10033000248135814681578157FF1AC0C901AA27F8
:1003400097FDA095BA2F81709070A070B0705695EF
:10035000479537952795822B932BA42BB52B848318
:100360009583A683B7838281938101969383828349
:10037000DF0101C0D201CD01CDB7DEB7E2E10C94BF
:100380007E28A0E2B0E0E7ECF1E00C946E286983EF
:100390007A838B839C832D833E834F835887E9E048
:1003A000EE2EF12CEC0EFD1ECE010196B7010E943F
:1003B000D2048E010F5E1F4FCE010596B8010E9438
:1003C000D2048A8991E089278A8BC701B801AE01DE
:1003D000475E5F4F0E9475000E94FD03A096E6E015
:1003E0000C948A28A0E2B0E0E8EFF1E00C946E28CB
:1003F00069837A838B839C832D833E834F835887C5
:10040000F9E0EF2EF12CEC0EFD1ECE010196B701A6
:100410000E94D2048E010F5E1F4FCE010596B801D7
:100420000E94D204C701B801AE01475E5F4F0E942F
:1004300075000E94FD03A096E6E00C948A28A0E2D5
:10044000B0E0E5E2F2E00C94622869837A838B8362
:100450009C832D833E834F835887CE010196BE0136
:10046000675F7F4F0E94D204CE010596BE016F5E8A
:100470007F4F0E94D2049985923088F0898982301A
:10048000C8F0943019F4823051F404C0843029F457
:10049000923081F48AED91E0C6C0923049F420E0B8
:1004A0009A858A89981321E02A87CE010996BBC0D4
:1004B000823049F420E09A858A89981321E02A8BBA
:1004C000CE014196B0C02D843E844F8458886D88FB
:1004D0007E888F88988CEE24FF248701AA24BB2471
:1004E000650140E050E060E070E0E0E0F0E0C10174
:1004F00081709070892BE9F0E60CF71C081D191D1E
:100500009A01AB012A0D3B1D4C1D5D1D80E090E062
:10051000A0E0B0E0E614F7040805190520F481E036
:1005200090E0A0E0B0E0BA01A901480F591F6A1F8E
:100530007B1FAA0CBB1CCC1CDD1C97FE08C081E0F5
:1005400090E0A0E0B0E0A82AB92ACA2ADB2A3196B6
:10055000E032F10549F0660C771C881C991C569412
:10056000479437942794C3CFFA85EA892B893C892D
:100570008B859C85280F391F2E5F3F4F17C0CA01FE
:1005800081709070892B61F016950795F794E79428
:1005900080E090E0A0E0B0E8E82AF92A0A2B1B2BC3
:1005A00076956795579547952F5F3F4F77FDE7CF36
:1005B0000CC0440F551F661F771F17FD4160EE0CDE
:1005C000FF1C001F111F21503040403090E05907A0
:1005D00090E0690790E4790760F32B8F3C8FDB0193
:1005E000CA018F779070A070B07080349105A1051A
:1005F000B10561F447FD0AC0E114F10401051105DC
:1006000029F0405C5F4F6F4F7F4F40781A8EFE1786
:1006100011F081E08A8F4D8F5E8F6F8F78A383E01A
:10062000898FCE0149960E94FD03A096E2E10C94C9
:100630007E28A8E1B0E0EFE1F3E00C946E28698336
:100640007A838B839C832D833E834F83588789E0F5
:10065000E82EF12CEC0EFD1ECE010196B7010E9492
:10066000D2048E010F5E1F4FCE010596B8010E9485
:10067000D2048985823040F08989823028F0C70110
:10068000B8010E944A0501C08FEF6896E6E00C941D
:100690008A28A8E1B0E0EFE4F3E00C946E286983C7
:1006A0007A838B839C832D833E834F83588789E095
:1006B000E82EF12CEC0EFD1ECE010196B7010E9432
:1006C000D2048E010F5E1F4FCE010596B8010E9425
:1006D000D2048985823040F08989823028F0C701B0
:1006E000B8010E944A0501C08FEF6896E6E00C94BD
:1006F0008A28A8E1B0E0EFE7F3E00C946E28698364
:100700007A838B839C832D833E834F83588789E034
:10071000E82EF12CEC0EFD1ECE010196B7010E94D1
:10072000D2048E010F5E1F4FCE010596B8010E94C4
:10073000D2048985823040F08989823028F0C7014F
:10074000B8010E944A0501C081E06896E6E00C9479
:100750008A28ACE0B0E0EFEAF3E00C9472286983F9
:100760007A838B839C83CE010196BE016B5F7F4FA2
:100770000E94D2048D81823061F1823050F1843048
:1007800021F48E81882351F12EC02F81388537FDC9
:1007900020C06E812F3131051CF06623F9F023C093
:1007A0008EE190E0821B930B29853A854B855C8511
:1007B00004C056954795379527958A95D2F76623B5
:1007C000B1F050954095309521953F4F4F4F5F4F79
:1007D0000EC020E030E040E050E009C02FEF3FEFD6
:1007E0004FEF5FE704C020E030E040E050E8B9019F
:1007F000CA012C96E2E00C948E28DF92EF92FF92D1
:100800000F931F93FC01E480F58006811781D1804E
:100810008081823048F480E090E0A0E1B0E0E82AF6
:10082000F92A0A2B1B2BA5C0843009F49FC0823003
:1008300021F4EE24FF24870105C0E114F104010531
:10084000110519F4E0E0F0E096C0628173819FEF3A
:10085000623879070CF05BC022E83FEF261B370BAC
:100860002A3131052CF020E030E040E050E02AC091
:10087000B801A701022E04C0769567955795479554
:100880000A94D2F781E090E0A0E0B0E004C0880FC5
:10089000991FAA1FBB1F2A95D2F70197A109B10979
:1008A0008E219F21A023B1230097A105B10521F03E
:1008B00081E090E0A0E0B0E09A01AB01282B392B59
:1008C0004A2B5B2BDA01C9018F779070A070B07052
:1008D00080349105A105B10539F427FF09C0205CDA
:1008E0003F4F4F4F5F4F04C0215C3F4F4F4F5F4F13
:1008F000E0E0F0E02030A0E03A07A0E04A07A0E402
:100900005A0710F0E1E0F0E079018A0127C0603871
:10091000710564F5FB01E158FF4FD801C7018F77DE
:100920009070A070B07080349105A105B10539F4C4
:10093000E7FE0DC080E490E0A0E0B0E004C08FE3EB
:1009400090E0A0E0B0E0E80EF91E0A1F1B1F17FFA1
:1009500005C016950795F794E794319687E01695AC
:100960000795F794E7948A95D1F705C0EE24FF2404
:100970008701EFEFF0E06E2F679566276795902F60
:100980009F77D794DD24D7948E2F8695492F462BB9
:10099000582F5D29B701CA011F910F91FF90EF9069
:1009A000DF900895FC01DB01408151812281622F9B
:1009B0006F7770E0221F2227221F9381892F880FD3
:1009C000822B282F30E0991F9927991F11969C930D
:1009D000119721153105A9F54115510561057105DD
:1009E00011F482E037C082E89FEF13969C938E93B8
:1009F00012979A01AB0167E0220F331F441F551F66
:100A00006A95D1F783E08C930DC0220F331F441FEA
:100A1000551F12968D919C911397019713969C9355
:100A20008E931297203080E0380780E0480780E4FA
:100A3000580758F314962D933D934D935C93179755
:100A400008952F3F310579F4411551056105710570
:100A500019F484E08C93089564FF03C081E08C93C3
:100A600012C01C9210C02F57304013963C932E9307
:100A7000129783E08C9387E0440F551F661F771F02
:100A80008A95D1F7706414964D935D936D937C9322
:100A9000179708951F93DC01FB019C91923008F495
:100AA00047C08081823008F443C0943051F41196DD
:100AB0001C91843099F58181682F70E0611B710968
:100AC0003FC0843021F0923031F48230B9F181811D
:100AD000882389F12DC011961C9111978230F1F075
:100AE00081811817D9F412962D913C911397828128
:100AF00093818217930794F028173907BCF0149656
:100B00008D919D910D90BC91A02D248135814681C0
:100B10005781281739074A075B0718F4112341F05A
:100B20000AC082179307A407B50740F4112319F0F0
:100B300061E070E005C06FEF7FEF02C060E070E041
:100B4000CB011F910895DF93CF93CDB7DEB7A7E216
:100B5000B0E0E7E2F0E080818F778C93A7E2B0E02D
:100B6000E7E2F0E0808180648C93A7E2B0E0E7E206
:100B7000F0E080818F7D8C93A6E2B0E0E6E2F0E0C9
:100B800080818F7D8C93A6E2B0E0E6E2F0E0808188
:100B900084608C93A6E2B0E0E6E2F0E080818260BF
:100BA0008C93A6E2B0E0E6E2F0E080818E7F8C9349
:100BB000A6E2B0E0E6E2F0E0808180688C93CF911D
:100BC000DF910895DF93CF93CDB7DEB728970FB6A7
:100BD000F894DEBF0FBECDBF8E8378876F831A82F5
:100BE0001B821C821D8281E089838E81803208F005
:100BF00065C08F819885009709F460C080910002DC
:100C0000882309F05BC081E080930002A7E2B0E096
:100C1000E7E2F0E08081807E8C93A7E2B0E0E7E23B
:100C2000F0E090818E81892B8C93A6E2B0E0E6E221
:100C3000F0E0808180648C930BC08A819B81AC81C1
:100C4000BD810196A11DB11D8A839B83AC83BD83A9
:100C5000E6E2F0E0808182958F70882F90E08170CD
:100C60009070009761F48A819B81AC81BD81803551
:100C700023EC920720E0A20720E0B207F0F2E6E2C0
:100C8000F0E0808182958F70882F90E08170907065
:100C9000882391F0A6E2B0E0E6E2F0E08081806196
:100CA0008C93E4E2F0E080819181EF81F88591837B
:100CB00080831092000203C0198201C019828981C9
:100CC00028960FB6F894DEBF0FBECDBFCF91DF914F
:100CD0000895DF93CF9300D000D0CDB7DEB78A83DD
:100CE0007C836B8381E089838A81803278F58B8174
:100CF0009C81009759F180910002882339F581E0A9
:100D0000809300028B819C819093FF018093FE0170
:100D1000A6E2B0E0E6E2F0E0808188608C93A7E292
:100D2000B0E0E7E2F0E08081807E8C93A7E2B0E063
:100D3000E7E2F0E090818A81892B8C93A6E2B0E013
:100D4000E6E2F0E0808180648C9301C019828981A1
:100D50000F900F900F900F90CF91DF910895DF9338
:100D6000CF9300D00F92CDB7DEB79B838A8381E00B
:100D700089838A819B81009749F0E4E2F0E08081D9
:100D80009181EA81FB819183808301C019828981ED
:100D90000F900F900F90CF91DF9108951F920F92B7
:100DA0000FB60F9211242F933F934F935F936F933E
:100DB0007F938F939F93AF93BF93EF93FF93DF93B3
:100DC000CF93CDB7DEB78091FE019091FF010097E0
:100DD00099F010920002A6E2B0E0E6E2F0E0808135
:100DE000877F8C932091FE013091FF01E4E2F0E0D7
:100DF00080819181F9010995CF91DF91FF91EF9168
:100E0000BF91AF919F918F917F916F915F914F9122
:100E10003F912F910F900FBE0F901F901895DF9369
:100E2000CF93CDB7DEB7EAE3F0E08FE98083E7E365
:100E3000F0E08FEF8083E4E3F0E08FEF8083E1E385
:100E4000F0E080EB8083EBE3F0E01082E8E3F0E099
:100E500080EF8083E5E3F0E01082E2E3F0E08FE4EE
:100E60008083CF91DF910895DF93CF9300D000D09E
:100E700000D0CDB7DEB78A836B834C8381E0898352
:100E80008A81853008F0EDC08B81883008F0E9C098
:100E90008C81882321F08C81813009F0E2C08A8125
:100EA000282F30E03E832D838D819E8182309105F5
:100EB00009F448C02D813E812330310534F48D8101
:100EC0009E818130910571F0CDC02D813E8123300E
:100ED000310509F467C08D819E818430910509F444
:100EE00091C0C0C08C818823A9F4AAE3B0E0EAE3F2
:100EF000F0E08081482F8B81282F30E081E090E066
:100F0000022E02C0880F991F0A94E2F7809584236D
:100F10008C93A8C08C81813009F0A4C0AAE3B0E012
:100F2000EAE3F0E08081482F8B81282F30E081E0D8
:100F300090E0022E02C0880F991F0A94E2F7842BDA
:100F40008C9390C08C818823A9F4A7E3B0E0E7E3F9
:100F5000F0E08081482F8B81282F30E081E090E005
:100F6000022E02C0880F991F0A94E2F7809584230D
:100F70008C9378C08C81813009F074C0A7E3B0E015
:100F8000E7E3F0E08081482F8B81282F30E081E07B
:100F900090E0022E02C0880F991F0A94E2F7842B7A
:100FA0008C9360C08C818823A9F4A4E3B0E0E4E3CF
:100FB000F0E08081482F8B81282F30E081E090E0A5
:100FC000022E02C0880F991F0A94E2F780958423AD
:100FD0008C9348C08C81813009F044C0A4E3B0E018
:100FE000E4E3F0E08081482F8B81282F30E081E01E
:100FF00090E0022E02C0880F991F0A94E2F7842B1A
:101000008C9330C08C818823A9F4A1E3B0E0E1E3A4
:10101000F0E08081482F8B81282F30E081E090E044
:10102000022E02C0880F991F0A94E2F7809584234C
:101030008C9318C08C818130A9F4A1E3B0E0E1E386
:10104000F0E08081482F8B81282F30E081E090E014
:10105000022E02C0880F991F0A94E2F7842B8C930A
:1010600001C01982898126960FB6F894DEBF0FBEA3
:10107000CDBFCF91DF910895DF93CF9300D000D003
:1010800000D0CDB7DEB78A836B834C8381E0898340
:101090008A81853008F0EDC08B81883008F0E9C086
:1010A0008C81882321F08C81813009F0E2C08A8113
:1010B000282F30E03E832D838D819E8182309105E3
:1010C00009F448C02D813E812330310534F48D81EF
:1010D0009E818130910571F0CDC02D813E812330FC
:1010E000310509F467C08D819E818430910509F432
:1010F00091C0C0C08C818823A9F4ABE3B0E0EBE3DE
:10110000F0E08081482F8B81282F30E081E090E053
:10111000022E02C0880F991F0A94E2F7809584235B
:101120008C93A8C08C81813009F0A4C0ABE3B0E0FF
:10113000EBE3F0E08081482F8B81282F30E081E0C5
:1011400090E0022E02C0880F991F0A94E2F7842BC8
:101150008C9390C08C818823A9F4A8E3B0E0E8E3E5
:10116000F0E08081482F8B81282F30E081E090E0F3
:10117000022E02C0880F991F0A94E2F780958423FB
:101180008C9378C08C81813009F074C0A8E3B0E002
:10119000E8E3F0E08081482F8B81282F30E081E068
:1011A00090E0022E02C0880F991F0A94E2F7842B68
:1011B0008C9360C08C818823A9F4A5E3B0E0E5E3BB
:1011C000F0E08081482F8B81282F30E081E090E093
:1011D000022E02C0880F991F0A94E2F7809584239B
:1011E0008C9348C08C81813009F044C0A5E3B0E005
:1011F000E5E3F0E08081482F8B81282F30E081E00B
:1012000090E0022E02C0880F991F0A94E2F7842B07
:101210008C9330C08C818823A9F4A2E3B0E0E2E390
:10122000F0E08081482F8B81282F30E081E090E032
:10123000022E02C0880F991F0A94E2F7809584233A
:101240008C9318C08C818130A9F4A2E3B0E0E2E372
:10125000F0E08081482F8B81282F30E081E090E002
:10126000022E02C0880F991F0A94E2F7842B8C93F8
:1012700001C01982898126960FB6F894DEBF0FBE91
:10128000CDBFCF91DF910895DF93CF93CDB7DEB778
:1012900028970FB6F894DEBF0FBECDBF8B836C834B
:1012A0005E834D8381E08A838B81853008F0ADC0F9
:1012B0008C81883008F0A9C08D819E81009709F447
:1012C000A4C08B81282F30E038872F834F81588529
:1012D00042305105C9F18F8198858330910534F4EE
:1012E0002F8138852130310571F090C04F815885AC
:1012F0004330510509F449C08F81988584309105A8
:1013000009F463C083C0E9E3F0E08081282F30E076
:101310008C81882F90E0A90102C0559547958A9548
:10132000E2F7CA01817089838981882321F4ED81E4
:10133000FE8110826BC08981813009F067C0ED8128
:10134000FE8181E0808362C0E6E3F0E08081282FA7
:1013500030E08C81882F90E0A90102C05595479517
:101360008A95E2F7CA01817089838981882321F4F3
:10137000ED81FE8110824AC08981813009F046C02A
:10138000ED81FE8181E0808341C0E3E3F0E0808174
:10139000282F30E08C81882F90E0A90102C055955C
:1013A00047958A95E2F7CA018170898389818823EC
:1013B00021F4ED81FE81108229C08981813031F5CF
:1013C000ED81FE8181E0808321C0E0E3F0E0808157
:1013D000282F30E08C81882F90E0A90102C055951C
:1013E00047958A95E2F7CA018170898389818823AC
:1013F00021F4ED81FE81108209C08981813031F4B0
:10140000ED81FE8181E0808301C01A828A81289665
:101410000FB6F894DEBF0FBECDBFCF91DF91089518
:10142000DF93CF9300D000D00F92CDB7DEB78A8381
:101430006B8381E089838A818530D0F58B81882315
:1014400019F08B818130A1F58A81282F30E03D830E
:101450002C838C819D8182309105D9F02C813D8136
:101460002330310534F48C819D818130910561F008
:1014700020C02C813D812330310581F08C819D81FC
:101480008430910581F015C0EAE3F0E08B81808320
:1014900010C0E7E3F0E08B8180830BC0E4E3F0E071
:1014A0008B81808306C0E7E3F0E08B81808301C0FD
:1014B000198289810F900F900F900F900F90CF910C
:1014C000DF910895DF93CF9300D000D00F92CDB776
:1014D000DEB78A836B8381E089838A81853098F5C2
:1014E0008A81282F30E03D832C838C819D8182303E
:1014F0009105D9F02C813D812330310534F48C8164
:101500009D818130910561F01EC02C813D81233089
:10151000310581F08C819D818430910581F013C06B
:10152000EBE3F0E08B8180830EC0E8E3F0E08B8199
:10153000808309C0E5E3F0E08B81808304C0E2E3AF
:10154000F0E08B81808389810F900F900F900F9036
:101550000F90CF91DF910895DF93CF9300D000D00B
:1015600000D0CDB7DEB78A837C836B8381E089832B
:101570008A81853008F040C08B819C810097E1F121
:101580008A81282F30E03E832D838D819E81823099
:101590009105E9F02D813E812330310534F48D81B0
:1015A0009E818130910561F028C02D813E812330DC
:1015B0003105A1F08D819E8184309105B1F01DC06F
:1015C000E9E3F0E08081EB81FC81808316C0E6E3F3
:1015D000F0E08081EB81FC8180830FC0E3E3F0E0E9
:1015E0008081EB81FC81808308C0E0E3F0E08081B2
:1015F000EB81FC81808301C01982898126960FB618
:10160000F894DEBF0FBECDBFCF91DF910895DF9379
:10161000CF93CDB7DEB7AFE5B0E0EFE5F0E0808186
:1016200080688C93CF91DF910895DF93CF93CDB7EE
:10163000DEB7AFE5B0E0EFE5F0E080818F778C9327
:10164000CF91DF910895DF93CF93CDB7DEB7659744
:101650000FB6F894DEBF0FBECDBF9D8B8C8BEC898F
:10166000FD898FEF808381E08A8B1F868C899D891D
:10167000009709F4ECC0198AE5C08989882F90E0A9
:10168000FC01EB50FE4F908182E0692F40E00E9408
:101690003C08188AC1C08889882F90E0FC01E75077
:1016A000FE4F90819E012D5E3F4F84E0692FA9017E
:1016B0000E9444098B89882309F0ABC080E090E048
:1016C000A0EAB1E48B879C87AD87BE876B857C855C
:1016D0008D859E8520E030E04AEF54E40E941F0291
:1016E000DC01CB018F839887A987BA876F817885C2
:1016F00089859A8520E030E040E85FE30E94790325
:1017000088232CF481E090E09E838D833FC06F811D
:10171000788589859A8520E03FEF4FE757E40E945E
:10172000190318164CF56B857C858D859E8520E008
:1017300030E040E251E40E941F02DC01CB01BC0119
:10174000CD010E944900DC01CB019E838D830FC037
:1017500088EC90E09C838B838B819C810197F1F7CF
:101760009C838B838D819E8101979E838D838D8148
:101770009E81009769F714C06F81788589859A8565
:101780000E944900DC01CB019E838D838D819E8167
:101790009A83898389819A810197F1F79A83898352
:1017A0008889882F90E0FC01E750FE4F90819E01D0
:1017B0002D5E3F4F84E0692FA9010E9444090FC0AC
:1017C0008889882F90E0FC01E750FE4F90819E01B0
:1017D0002D5E3F4F84E0692FA9010E9444098B8947
:1017E000882371F381E08F878989482F50E08889A9
:1017F000282F30E0CA01880F991F880F991F820F88
:10180000931FFC01EB51FE4F8081EC89FD898083A1
:1018100007C088898F5F888B8889833008F43BCF25
:101820008989882F90E0FC01EB50FE4F908182E087
:10183000692F41E00E943C088F85882349F48989FB
:101840008F5F898B8989843008F417CF01C01A8A89
:101850008A8965960FB6F894DEBF0FBECDBFCF91D3
:10186000DF910895DF93CF93CDB7DEB7E8970FB63A
:10187000F894DEBF0FBECDBF82E062E040E00E9480
:101880003C0880E090E0ACE0B2E48DAB9EABAFAB47
:10189000B8AF6DA97EA98FA998AD20E030E04AEFDE
:1018A00054E40E941F02DC01CB0189AB9AABABABC5
:1018B000BCAB69A97AA98BA99CA920E030E040E8DB
:1018C0005FE30E94790388232CF481E090E098ABD9
:1018D0008FA73FC069A97AA98BA99CA920E03FEFF7
:1018E0004FE757E40E94190318164CF56DA97EA91D
:1018F0008FA998AD20E030E040E251E40E941F0241
:10190000DC01CB01BC01CD010E944900DC01CB010F
:1019100098AB8FA70FC088EC90E09EA78DA78DA5F0
:101920009EA50197F1F79EA78DA78FA598A901976E
:1019300098AB8FA78FA598A9009769F714C069A9DC
:101940007AA98BA99CA90E944900DC01CB0198AB24
:101950008FA78FA598A99CA78BA78BA59CA501975E
:10196000F1F79CA78BA788E30E941E0E80E090E011
:10197000A0EAB0E48FA398A7A9A7BAA76FA178A5FA
:1019800089A59AA520E030E04AEF54E40E941F02A6
:10199000DC01CB018BA39CA3ADA3BEA36BA17CA157
:1019A0008DA19EA120E030E040E85FE30E94790332
:1019B00088232CF481E090E09AA389A33FC06BA117
:1019C0007CA18DA19EA120E03FEF4FE757E40E944C
:1019D000190318164CF56FA178A589A59AA520E0E2
:1019E00030E040E251E40E941F02DC01CB01BC0167
:1019F000CD010E944900DC01CB019AA389A30FC04D
:101A000088EC90E098A38F8F8F8D98A10197F1F7C4
:101A100098A38F8F89A19AA101979AA389A389A1DD
:101A20009AA1009769F714C06BA17CA18DA19EA11A
:101A30000E944900DC01CB019AA389A389A19AA144
:101A40009E8F8D8F8D8D9E8D0197F1F79E8F8D8F3F
:101A50008CE00E941E0E80E090E0A0EAB0E4898F46
:101A60009A8FAB8FBC8F698D7A8D8B8D9C8D20E08A
:101A700030E04AEF54E40E941F02DC01CB018D8B61
:101A80009E8BAF8BB88F6D897E898F89988D20E072
:101A900030E040E85FE30E94790388232CF481E082
:101AA00090E09C8B8B8B3FC06D897E898F89988D50
:101AB00020E03FEF4FE757E40E94190318164CF55A
:101AC000698D7A8D8B8D9C8D20E030E040E251E471
:101AD0000E941F02DC01CB01BC01CD010E94490024
:101AE000DC01CB019C8B8B8B0FC088EC90E09A8B38
:101AF000898B89899A890197F1F79A8B898B8B89D0
:101B00009C8901979C8B8B8B8B899C89009769F7AB
:101B100014C06D897E898F89988D0E944900DC01EF
:101B2000CB019C8B8B8B8B899C89988B8F878F8526
:101B300098890197F1F7988B8F8781E00E941E0E9C
:101B400080E090E0A0EAB0E48B879C87AD87BE87F9
:101B50006B857C858D859E8520E030E04AEF54E4DE
:101B60000E941F02DC01CB018F839887A987BA8767
:101B70006F81788589859A8520E030E040E85FE3D1
:101B80000E94790388232CF481E090E09E838D836A
:101B90003FC06F81788589859A8520E03FEF4FE7C8
:101BA00057E40E94190318164CF56B857C858D85CA
:101BB0009E8520E030E040E251E40E941F02DC01FB
:101BC000CB01BC01CD010E944900DC01CB019E8309
:101BD0008D830FC088EC90E09C838B838B819C81EC
:101BE0000197F1F79C838B838D819E8101979E8362
:101BF0008D838D819E81009769F714C06F817885F0
:101C000089859A850E944900DC01CB019E838D83E2
:101C10008D819E819A83898389819A810197F1F7C9
:101C20009A83898386E00E941E0EE8960FB6F89488
:101C3000DEBF0FBECDBFCF91DF910895DF93CF936D
:101C4000CDB7DEB72F970FB6F894DEBF0FBECDBF6E
:101C50008F8782E060E040E00E943C0882E061E023
:101C600040E00E943C0882E062E040E00E943C08C4
:101C700083E06F850E94620A82E062E041E00E9498
:101C80003C0880E090E0A0E8BFE38B879C87AD87AD
:101C9000BE876B857C858D859E8520E030E04AEF90
:101CA00054E40E941F02DC01CB018F839887A9872F
:101CB000BA876F81788589859A8520E030E040E891
:101CC0005FE30E94790388232CF481E090E09E83F7
:101CD0008D833FC06F81788589859A8520E03FEFAD
:101CE0004FE757E40E94190318164CF56B857C8565
:101CF0008D859E8520E030E040E251E40E941F0285
:101D0000DC01CB01BC01CD010E944900DC01CB010B
:101D10009E838D830FC088EC90E09C838B838B81A6
:101D20009C810197F1F79C838B838D819E81019724
:101D30009E838D838D819E81009769F714C06F818A
:101D4000788589859A850E944900DC01CB019E83B4
:101D50008D838D819E819A83898389819A81019760
:101D6000F1F79A83898382E062E040E00E943C08B8
:101D70002F960FB6F894DEBF0FBECDBFCF91DF9187
:101D80000895DF93CF93CDB7DEB72F970FB6F894B2
:101D9000DEBF0FBECDBF8F8782E060E041E00E94D2
:101DA0003C0882E061E040E00E943C0882E062E0A2
:101DB00040E00E943C0883E06F850E94620A82E056
:101DC00062E041E00E943C0880E090E0A0E8BFE3D0
:101DD0008B879C87AD87BE876B857C858D859E852F
:101DE00020E030E04AEF54E40E941F02DC01CB0106
:101DF0008F839887A987BA876F81788589859A8527
:101E000020E030E040E85FE30E94790388232CF46F
:101E100081E090E09E838D833FC06F8178858985C6
:101E20009A8520E03FEF4FE757E40E941903181608
:101E30004CF56B857C858D859E8520E030E040E209
:101E400051E40E941F02DC01CB01BC01CD010E94C4
:101E50004900DC01CB019E838D830FC088EC90E0AC
:101E60009C838B838B819C810197F1F79C838B836F
:101E70008D819E8101979E838D838D819E810097A8
:101E800069F714C06F81788589859A850E94490019
:101E9000DC01CB019E838D838D819E819A83898312
:101EA00089819A810197F1F79A83898382E062E0C0
:101EB00040E00E943C082F960FB6F894DEBF0FBE9C
:101EC000CDBFCF91DF910895DF93CF9300D000D0A5
:101ED000CDB7DEB79C838B831A8219820FC02B810A
:101EE0003C8189819A81F901E80FF91F80810E9464
:101EF000C10E89819A8101969A8389832B813C81C5
:101F000089819A81F901E80FF91F8081882339F7C7
:101F10000F900F900F900F90CF91DF910895DF9366
:101F2000CF93CDB7DEB76B970FB6F894DEBF0FBE79
:101F3000CDBF688F798F8A8F9B8F81E08B83888D4F
:101F4000998DAA8DBB8DBB230CF043C08DE20E94FE
:101F5000C10E888D998DAA8DBB8DB095A095909559
:101F600081959F4FAF4FBF4F888F998FAA8FBB8F9F
:101F700030C0888D998DAA8DBB8D2AE030E040E07D
:101F800050E0BC01CD010E944728DC01CB018983D0
:101F90008B81282F30E08981482F405DCE01049647
:101FA000FC01E20FF31F4083888D998DAA8DBB8DB4
:101FB0002AE030E040E050E0BC01CD010E9447281B
:101FC000DA01C901888F998FAA8FBB8F8B818F5FB0
:101FD0008B83888D998DAA8DBB8D0097A105B10546
:101FE00041F68B8181508A830EC08A81282F30E090
:101FF000CE010496FC01E20FF31F80810E94C10E06
:102000008A8181508A838A81882379F76B960FB6FB
:10201000F894DEBF0FBECDBFCF91DF910895DF935F
:10202000CF9300D000D00F92CDB7DEB78A836B83F9
:1020300081E089838B818832D8F48A81282F30E02F
:102040003D832C838C819D81009731F02C813D81D3
:102050002130310531F00AC08B8180580E941E0E5C
:1020600008C08B8180540E941E0E03C0198201C0DB
:10207000198289810F900F900F900F900F90CF9140
:10208000DF910895DF93CF9300D000D0CDB7DEB7B6
:102090008A837C836B838A81883018F58A81882FB4
:1020A00090E00896880F991F880F991F880F991F35
:1020B0000E941E0E19820EC08981282F30E08B816C
:1020C0009C81FC01E20FF31F80810E94C10E898177
:1020D0008F5F89838981883078F380E061E00E9496
:1020E0000F100F900F900F900F90CF91DF910895E8
:1020F000DF93CF930F92CDB7DEB789838981883084
:1021000018F489810E94C10E0F90CF91DF9108953C
:102110000F931F93DF93CF93CDB7DEB7CD57D0404A
:102120000FB6F894DEBF0FBECDBFFE01E758FF4FDC
:102130008083FE01E658FF4F71836083FE01E658FD
:10214000FF4F80819181CC01A0E0B0E0072E7BE0C1
:10215000880F991FAA1FBB1F7A95D1F7702D28E60B
:1021600031E040E050E0BC01CD010E942528DA01B9
:10217000C901FE01E958FF4F91838083DE01AB580E
:10218000BF4FFE01E958FF4F808191819695879559
:102190009695879511969C938E93FE01E758FF4F75
:1021A0008081282F30E0EE963FAF2EAFEE97EE966F
:1021B0008EAD9FADEE97009749F0EE96EEADFFAD78
:1021C000EE97E130F10509F410C347C5FE01ED5863
:1021D000FF4F11821082FAC281E061E041E00E946B
:1021E0003C0881E063E041E00E943C0881E062E05D
:1021F00041E00E943C0881E060E040E00E943C0831
:10220000FE01E359FF4F80E090E0A0E2B1E480835B
:102210009183A283B3838E0107591F4FFE01E359B7
:10222000FF4F608171818281938120E030E04AEF2D
:1022300054E40E941F02DC01CB01F80180839183EA
:10224000A283B383FE01E759FF4F608171818281D0
:10225000938120E030E040E85FE30E947903882327
:1022600044F4FE01E959FF4F81E090E091838083BF
:1022700064C0FE01E759FF4F6081718182819381C3
:1022800020E03FEF4FE757E40E94190318160CF0C7
:1022900043C0FE01E359FF4F6081718182819381C8
:1022A00020E030E040E251E40E941F02DC01CB015B
:1022B0008E0109591F4FBC01CD010E944900DC016C
:1022C000CB01F801918380831FC0FE01EB59FF4FC2
:1022D00088EC90E091838083FE01EB59FF4F808171
:1022E00091810197F1F7FE01EB59FF4F91838083B4
:1022F000DE01A959BF4FFE01E959FF4F808191814D
:10230000019711969C938E93FE01E959FF4F8081AE
:1023100091810097D1F627C08E0109591F4FFE0108
:10232000E759FF4F60817181828193810E9449004A
:10233000DC01CB01F80191838083DE01AD59BF4FF1
:10234000FE01E959FF4F808191818D939C93FE019D
:10235000ED59FF4F808191810197F1F7FE01ED5911
:10236000FF4F9183808381E060E041E00E943C0860
:1023700081E062E041E00E943C0881E063E041E0EE
:102380000E943C0881E061E040E00E943C08FE01C0
:10239000E15AFF4F80E090E0A0E2B1E480839183B6
:1023A000A283B3838E01055A1F4FFE01E15AFF4FEE
:1023B000608171818281938120E030E04AEF54E4B2
:1023C0000E941F02DC01CB01F80180839183A2836C
:1023D000B383FE01E55AFF4F608171818281938151
:1023E00020E030E040E85FE30E947903882344F472
:1023F000FE01E75AFF4F81E090E09183808364C043
:10240000FE01E55AFF4F608171818281938120E056
:102410003FEF4FE757E40E94190318160CF043C032
:10242000FE01E15AFF4F608171818281938120E03A
:1024300030E040E251E40E941F02DC01CB018E013A
:10244000075A1F4FBC01CD010E944900DC01CB019E
:10245000F801918380831FC0FE01E95AFF4F88EC89
:1024600090E091838083FE01E95AFF4F8081918142
:102470000197F1F7FE01E95AFF4F91838083DE0156
:10248000A75ABF4FFE01E75AFF4F80819181019704
:1024900011969C938E93FE01E75AFF4F80819181A4
:1024A0000097D1F627C08E01075A1F4FFE01E55A4B
:1024B000FF4F60817181828193810E944900DC011C
:1024C000CB01F80191838083DE01AB5ABF4FFE013F
:1024D000E75AFF4F808191818D939C93FE01EB5AC7
:1024E000FF4F808191810197F1F7FE01EB5AFF4F79
:1024F0009183808381E060E041E00E943C0881E0BC
:1025000063E041E00E943C0881E061E041E00E941C
:102510003C0881E062E040E00E943C08FE01EF5A86
:10252000FF4F80E090E0A0E2B1E480839183A2833A
:10253000B3838E01035B1F4FFE01EF5AFF4F608193
:1025400071818281938120E030E04AEF54E40E945F
:102550001F02DC01CB01F80180839183A283B38346
:10256000FE01E35BFF4F608171818281938120E0F6
:1025700030E040E85FE30E947903882344F4FE01E1
:10258000E55BFF4F81E090E09183808364C0FE01B2
:10259000E35BFF4F608171818281938120E03FEF97
:1025A0004FE757E40E94190318160CF043C0FE01D0
:1025B000EF5AFF4F608171818281938120E030E08A
:1025C00040E251E40E941F02DC01CB018E01055B59
:1025D0001F4FBC01CD010E944900DC01CB01F80175
:1025E000918380831FC0FE01E75BFF4F88EC90E082
:1025F00091838083FE01E75BFF4F8081918101978A
:10260000F1F7FE01E75BFF4F91838083DE01A55B5D
:10261000BF4FFE01E55BFF4F8081918101971196CD
:102620009C938E93FE01E55BFF4F80819181009723
:10263000D1F627C08E01055B1F4FFE01E35BFF4F04
:1026400060817181828193810E944900DC01CB010C
:10265000F80191838083DE01A95BBF4FFE01E55B3A
:10266000FF4F808191818D939C93FE01E95BFF4F29
:10267000808191810197F1F7FE01E95BFF4F918322
:10268000808381E060E041E00E943C0881E062E0FC
:1026900041E00E943C0881E061E041E00E943C088A
:1026A00081E063E040E00E943C08FE01ED5BFF4FEB
:1026B00080E090E0A0E2B1E480839183A283B383C1
:1026C0008E01015C1F4FFE01ED5BFF4F6081718148
:1026D0008281938120E030E04AEF54E40E941F029F
:1026E000DC01CB01F80180839183A283B383FE01D7
:1026F000FF96608171818281938120E030E040E823
:102700005FE30E94790388232CF481E090E09EAF80
:102710008DAF46C0FE01FF966081718182819381F9
:1027200020E03FEF4FE757E40E941903181664F5C5
:10273000FE01ED5BFF4F608171818281938120E01A
:1027400030E040E251E40E941F02DC01CB01BC01F9
:10275000CD010E944900DC01CB019EAF8DAF0FC0BF
:1027600088EC90E09CAF8BAF8BAD9CAD0197F1F7FF
:102770009CAF8BAF8DAD9EAD01979EAF8DAF8DADF4
:102780009EAD009769F716C0FE01FF9660817181CA
:10279000828193810E944900DC01CB019EAF8DAF05
:1027A0008DAD9EAD9AAF89AF89AD9AAD0197F1F726
:1027B0009AAF89AFDE01AD58BF4FFE01ED58FF4F14
:1027C00080819181019611969C938E93FE01ED5824
:1027D000FF4F20813181FE01EB58FF4F80819181B5
:1027E0002817390708F4F8CC38C2FE01EF58FF4F1C
:1027F0001182108224C281E061E041E00E943C0825
:1028000081E060E041E00E943C0881E062E041E05C
:102810000E943C0881E063E040E00E943C0880E0C8
:1028200090E0A0E2B1E48DAB9EABAFABB8AF6DA9C9
:102830007EA98FA998AD20E030E04AEF54E40E94D1
:102840001F02DC01CB0189AB9AABABABBCAB69A976
:102850007AA98BA99CA920E030E040E85FE30E94C0
:10286000790388232CF481E090E098AB8FA73FC0D8
:1028700069A97AA98BA99CA920E03FEF4FE757E40B
:102880000E94190318164CF56DA97EA98FA998AD61
:1028900020E030E040E251E40E941F02DC01CB0165
:1028A000BC01CD010E944900DC01CB0198AB8FA790
:1028B0000FC088EC90E09EA78DA78DA59EA50197DF
:1028C000F1F79EA78DA78FA598A9019798AB8FA721
:1028D0008FA598A9009769F714C069A97AA98BA94F
:1028E0009CA90E944900DC01CB0198AB8FA78FA562
:1028F00098A99CA78BA78BA59CA50197F1F79CA7EE
:102900008BA781E060E041E00E943C0881E061E04B
:1029100041E00E943C0881E063E041E00E943C0805
:1029200081E062E040E00E943C0880E090E0A0E2AC
:10293000B1E48FA398A7A9A7BAA76FA178A589A585
:102940009AA520E030E04AEF54E40E941F02DC0127
:10295000CB018BA39CA3ADA3BEA36BA17CA18DA136
:102960009EA120E030E040E85FE30E9479038823E5
:102970002CF481E090E09AA389A33FC06BA17CA1D5
:102980008DA19EA120E03FEF4FE757E40E9419037D
:1029900018164CF56FA178A589A59AA520E030E01E
:1029A00040E251E40E941F02DC01CB01BC01CD01D9
:1029B0000E944900DC01CB019AA389A30FC088ECD7
:1029C00090E098A38F8F8F8D98A10197F1F798A32E
:1029D0008F8F89A19AA101979AA389A389A19AA10E
:1029E000009769F714C06BA17CA18DA19EA10E94E4
:1029F0004900DC01CB019AA389A389A19AA19E8FEA
:102A00008D8F8D8D9E8D0197F1F79E8F8D8F81E03B
:102A100060E041E00E943C0881E063E041E00E9408
:102A20003C0881E062E041E00E943C0881E061E016
:102A300040E00E943C0880E090E0A0E2B1E4898F91
:102A40009A8FAB8FBC8F698D7A8D8B8D9C8D20E09A
:102A500030E04AEF54E40E941F02DC01CB018D8B71
:102A60009E8BAF8BB88F6D897E898F89988D20E082
:102A700030E040E85FE30E94790388232CF481E092
:102A800090E09C8B8B8B3FC06D897E898F89988D60
:102A900020E03FEF4FE757E40E94190318164CF56A
:102AA000698D7A8D8B8D9C8D20E030E040E251E481
:102AB0000E941F02DC01CB01BC01CD010E94490034
:102AC000DC01CB019C8B8B8B0FC088EC90E09A8B48
:102AD000898B89899A890197F1F79A8B898B8B89E0
:102AE0009C8901979C8B8B8B8B899C89009769F7BC
:102AF00014C06D897E898F89988D0E944900DC0100
:102B0000CB019C8B8B8B8B899C89988B8F878F8536
:102B100098890197F1F7988B8F8781E063E041E016
:102B20000E943C0881E062E041E00E943C0881E0B4
:102B300061E041E00E943C0881E060E040E00E94EA
:102B40003C0880E090E0A0E2B1E48B879C87AD87F1
:102B5000BE876B857C858D859E8520E030E04AEFC1
:102B600054E40E941F02DC01CB018F839887A98760
:102B7000BA876F81788589859A8520E030E040E8C2
:102B80005FE30E94790388232CF481E090E09E8328
:102B90008D833FC06F81788589859A8520E03FEFDE
:102BA0004FE757E40E94190318164CF56B857C8596
:102BB0008D859E8520E030E040E251E40E941F02B6
:102BC000DC01CB01BC01CD010E944900DC01CB013D
:102BD0009E838D830FC088EC90E09C838B838B81D8
:102BE0009C810197F1F79C838B838D819E81019756
:102BF0009E838D838D819E81009769F714C06F81BC
:102C0000788589859A850E944900DC01CB019E83E5
:102C10008D838D819E819A83898389819A81019791
:102C2000F1F79A838983DE01AF58BF4FFE01EF5859
:102C3000FF4F80819181019611969C938E93FE01A6
:102C4000EF58FF4F20813181FE01EB58FF4F80810B
:102C500091812817390708F4CECDC358DF4F0FB63E
:102C6000F894DEBF0FBECDBFCF91DF911F910F91C2
:102C70000895DF93CF93CDB7DEB781E063E041E005
:102C80000E943C0881E062E041E00E943C0881E053
:102C900061E041E00E943C0881E060E041E00E9488
:102CA0003C08CF91DF910895DF93CF93CDB7DEB786
:102CB000A3E5B0E0E3E5F0E0808180648C93A3E5D8
:102CC000B0E0E3E5F0E0808188608C93A3E5B0E0BC
:102CD000E3E5F0E0808180628C93A3E5B0E0E3E57A
:102CE000F0E080818F7E8C93A3E5B0E0E3E5F0E037
:102CF000808182608C93A3E5B0E0E3E5F0E0808121
:102D00008B7F8C93A3E5B0E0E3E5F0E080818E7FDC
:102D10008C93CF91DF910895DF93CF93CDB7DEB73A
:102D2000AFE4B0E0EFE4F0E0808182608C93AFE448
:102D3000B0E0EFE4F0E080818E7F8C93AEE4B0E011
:102D4000EEE4F0E0808180618C93AEE4B0E0EEE4EC
:102D5000F0E0808188608C93AFE4B0E0EFE4F0E0D5
:102D6000808180688C93AFE4B0E0EFE4F0E0808194
:102D70008F7B8C93E6E4F0E08FE19EE49183808387
:102D8000AEE4B0E0EEE4F0E0808182608C93AEE4EB
:102D9000B0E0EEE4F0E080818B7F8C93AEE4B0E0B5
:102DA000EEE4F0E080818E7F8C93CF91DF910895E7
:102DB000DF93CF9300D0CDB7DEB79A838983EAE45F
:102DC000F0E089819A81918380830F900F90CF9159
:102DD000DF910895DF93CF930F92CDB7DEB789834C
:102DE000ECE5F0E0898180830F90CF91DF91089529
:102DF000DF93CF93CDB7DEB784EF91E00E94D81672
:102E000081E064E041E00E943C088AEA0E94EA1600
:102E1000109204021092050289E180930802109238
:102E2000020210920102CF91DF910895DF93CF93B8
:102E300000D0CDB7DEB7109202021092010281E0FD
:102E40000E941E0E80E690E00E94640F81E060E028
:102E50000E940F108BE690E00E94640F1092040213
:102E600089E092E00E94230B809109028F3FC1F319
:102E700080910902805380930A0280910A028A306D
:102E8000C8F480910102909102029C01220F331F2D
:102E9000C901880F991F880F991F280F391F80912A
:102EA0000902882F90E0820F931FC097909302022F
:102EB000809301028091010290910202813091057C
:102EC00009F03FC0109202021092010281E00E94BC
:102ED0001E0E8AE790E00E94640F81E060E00E948D
:102EE0000F108AE890E00E94640F89E092E00E944F
:102EF000230B809109028F3FC1F380910902805317
:102F000080930A0280910A028A3008F041C08091C1
:102F10000102909102029C01220F331FC901880F08
:102F2000991F880F991F280F391F80910902882F38
:102F300090E0820F931FC09790930202809301024A
:102F400027C080910102909102028230910501F523
:102F50001A8219820AC080E06FE070E00E94881037
:102F600089819A8101969A83898389819A8188319E
:102F700091058CF381E064E040E00E943C0880E031
:102F80000E94EA161092E4011092020210920102CD
:102F90000F900F90CF91DF910895DF93CF9300D0E2
:102FA000CDB7DEB79A83898389819A819093E301B3
:102FB0008093E2010F900F90CF91DF910895DF93FE
:102FC000CF93CDB7DEB72B970FB6F894DEBF0FBE09
:102FD000CDBF89878985282F30E03B872A878A855E
:102FE0009B8582309105C1F12A853B8523303105CF
:102FF00034F48A859B858130910571F0DFC02A8584
:103000003B852330310509F44BC08A859B8584308C
:10301000910509F469C0D2C0109202021092010217
:1030200080910502813009F0C9C018861F820AC04C
:1030300080E06FE070E00E9488108F819885019693
:1030400098878F838F819885883191058CF31092B2
:10305000050210920402B2C0109202021092010204
:10306000809104028823C1F41E821D820AC081E07F
:103070006FE070E00E9488108D819E8101969E8392
:103080008D838D819E81883191058CF381E08093C1
:10309000050281E08093040281E0809304028EC0E7
:1030A0001092020210920102809104028823C1F45E
:1030B0001C821B820AC081E06FE070E00E948810D1
:1030C0008B819C8101969C838B838B819C81883032
:1030D00091058CF381E08093050281E080930402E6
:1030E00081E0809304026AC01092020210920102F1
:1030F00081E00E941E0E80E690E00E94640F81E055
:1031000060E00E940F108BE690E00E94640F89E05F
:1031100092E00E94230B809109028F3FC1F38091BE
:103120000902805380930A0280910A028A30C8F40F
:1031300080910102909102029C01220F331FC9016C
:10314000880F991F880F991F280F391F8091090236
:10315000882F90E0820F931FC09790930202809374
:10316000010280910102909102028230910521F5C5
:1031700081E064E040E00E943C0880E00E94EA16A2
:1031800080910402813091F41A8219820AC080E091
:103190006FE070E00E94881089819A8101969A837D
:1031A000898389819A81883191058CF31092E40199
:1031B0001092020210920102109204028091040205
:1031C0002B960FB6F894DEBF0FBECDBFCF91DF9127
:1031D0000895DF93CF9300D000D00F92CDB7DEB724
:1031E0008B8380910102909102029D838C838C815C
:1031F0009D8182309105B9F08C819D81833091054C
:1032000071F18C819D818130910509F090C081E040
:1032100064E040E00E943C08109202021092010219
:103220001092030284C08B81882349F481E064E01A
:1032300041E00E943C0881E08093030278C08B81CA
:10324000813009F074C081E064E040E00E943C08F5
:1032500010920302109202021092010268C01092B2
:1032600002021092010281E00E941E0E80E690E0B0
:103270000E94640F81E060E00E940F108BE690E0F6
:103280000E94640F89E092E00E94230B8091090262
:103290008F3FC1F380910902805380930A0280918D
:1032A0000A028A30C8F480910102909102029C01C6
:1032B000220F331FC901880F991F880F991F280FEC
:1032C000391F80910902882F90E0820F931FC097C9
:1032D0009093020280930102809101029091020278
:1032E00082309105F1F481E064E040E00E943C0806
:1032F00080E00E94EA1680910402813091F41A82E3
:1033000019820AC080E06FE070E00E948810898115
:103310009A8101969A83898389819A81883191055E
:103320008CF31092E40110920202109201020F90AD
:103330000F900F900F900F90CF91DF910895DF9332
:10334000CF93CDB7DEB7AE970FB6F894DEBF0FBE02
:10335000CDBF8BA36CA31AA219A28CA1282F30E099
:103360003EA72DA78DA59EA5009739F02DA53EA5BA
:103370002130310509F400C404C4109202021092F5
:10338000010281E00E941E0E8BE990E00E94640F12
:1033900081E060E00E940F108AEA90E00E94640FD2
:1033A00089E092E00E94230B809109028F3FC1F3D4
:1033B00080910902805380930A0280910A028A3028
:1033C000C8F480910102909102029C01220F331FE8
:1033D000C901880F991F880F991F280F391F8091E5
:1033E0000902882F90E0820F931FC09790930202EA
:1033F0008093010280910102909102029CA78BA709
:103400002BA53CA52230310521F18BA59CA583304D
:10341000910530F42BA53CA52130310561F0B1C3F5
:103420008BA59CA58330910511F12BA53CA52430DB
:10343000310559F1A6C38AEA0E94EA1689E1809310
:10344000080281E08093E4011092020210920102CE
:1034500098C388E70E94EA168EE18093080281E013
:103460008093E40110920202109201028AC38AEF53
:103470000E94EA1686E18093080281E08093E401CD
:1034800010920202109201027CC31092020210926A
:10349000010281E00E941E0E89EB90E00E94640F01
:1034A00081E060E00E940F1085EC90E00E94640FC4
:1034B00089E092E00E94230B809109028F3FC1F3C3
:1034C00080910902805380930A0280910A028A3017
:1034D000C8F480910102909102029C01220F331FD7
:1034E000C901880F991F880F991F280F391F8091D4
:1034F0000902882F90E0820F931FC09790930202D9
:103500008093010280910102909102029AA789A7FB
:1035100029A53AA52130310531F089A59AA5823037
:10352000910559F02EC3109202021092010280E020
:103530000E94EA161092E40124C310920202109233
:10354000010281E00E941E0E80E690E00E94640F5E
:1035500081E060E00E940F108BE690E00E94640F13
:1035600089E092E00E94230B809109028F3FC1F312
:1035700080910902805380930A0280910A028A3066
:10358000C8F480910102909102029C01220F331F26
:10359000C901880F991F880F991F280F391F809123
:1035A0000902882F90E0820F931FC0979093020228
:1035B0008093010280910102909102028230910574
:1035C00009F0DFC281E064E040E00E943C0880E056
:1035D0000E94EA1680910402813091F418A21F8E95
:1035E0000AC080E06FE070E00E9488108F8D98A183
:1035F000019698A38F8F8F8D98A1883191058CF3B8
:103600001092E40110920202109201021092040240
:10361000B8C2109202021092010281E00E941E0EB6
:103620008CEC90E00E94640F81E060E00E940F103B
:103630008CED90E00E94640F80E090E0AAE7B4E493
:10364000898F9A8FAB8FBC8F698D7A8D8B8D9C8D76
:1036500020E030E04AEF54E40E941F02DC01CB017D
:103660008D8B9E8BAF8BB88F6D897E898F89988D5E
:1036700020E030E040E85FE30E94790388232CF4E7
:1036800081E090E09C8B8B8B3FC06D897E898F8918
:10369000988D20E03FEF4FE757E40E94190318167A
:1036A0004CF5698D7A8D8B8D9C8D20E030E040E269
:1036B00051E40E941F02DC01CB01BC01CD010E943C
:1036C0004900DC01CB019C8B8B8B0FC088EC90E018
:1036D0009A8B898B89899A890197F1F79A8B898BC3
:1036E0008B899C8901979C8B8B8B8B899C890097FC
:1036F00069F714C06D897E898F89988D0E94490071
:10370000DC01CB019C8B8B8B8B899C89988B8F8761
:103710008F8598890197F1F7988B8F8785EE90E0D8
:103720000E94640F81E00E941E0E88EE90E00E94CD
:10373000640F89E092E00E94230B89A19AA101966F
:103740009AA389A3809109028F3F31F489A19AA19C
:1037500023E18838920768F38091090280538093AF
:103760000A0280910A028A30C8F480910102909185
:1037700002029C01220F331FC901880F991F880F75
:10378000991F280F391F80910902882F90E0820F1E
:10379000931FC097909302028093010280910102CF
:1037A000909102028130910509F05AC18091010285
:1037B000909102020E94DF178CA3109205021092D2
:1037C000020210920102109202021092010281E0A4
:1037D0000E941E0E8BE990E00E94640F81E060E081
:1037E0000E940F108AEA90E00E94640F89E092E044
:1037F0000E94230B809109028F3FC1F3809109023F
:10380000805380930A0280910A028A30C8F4809122
:103810000102909102029C01220F331FC901880FFF
:10382000991F880F991F280F391F80910902882F2F
:1038300090E0820F931FC097909302028093010241
:10384000809101029091020298A78FA32FA138A521
:103850002230310521F18FA198A58330910530F4F4
:103860002FA138A52130310561F0F7C08FA198A5AF
:103870008330910511F12FA138A52430310559F17C
:10388000ECC08AEA0E94EA1689E18093080281E08E
:103890008093E4011092020210920102DEC088E7D8
:1038A0000E94EA168EE18093080281E08093E40191
:1038B0001092020210920102D0C08AEF0E94EA1612
:1038C00086E18093080281E08093E4011092020275
:1038D00010920102C2C0109202021092010281E015
:1038E0000E941E0E89EB90E00E94640F81E060E070
:1038F0000E940F1085EC90E00E94640F89E092E036
:103900000E94230B809109028F3FC1F3809109022D
:10391000805380930A0280910A028A30C8F4809111
:103920000102909102029C01220F331FC901880FEE
:10393000991F880F991F280F391F80910902882F1E
:1039400090E0820F931FC097909302028093010230
:1039500080910102909102029EA38DA32DA13EA110
:103960002130310531F08DA19EA18230910559F0B1
:1039700074C0109202021092010280E00E94EA16C6
:103980001092E4016AC0109202021092010281E0DA
:103990000E941E0E80E690E00E94640F81E060E0CD
:1039A0000E940F108BE690E00E94640F89E092E085
:1039B0000E94230B809109028F3FC1F3809109027D
:1039C000805380930A0280910A028A30C8F4809161
:1039D0000102909102029C01220F331FC901880F3E
:1039E000991F880F991F280F391F80910902882F6E
:1039F00090E0820F931FC097909302028093010280
:103A000080910102909102028230910531F581E0AE
:103A100064E040E00E943C0880E00E94EA16809149
:103A20000402813091F41E8E1D8E0AC080E06FE08A
:103A300070E00E9488108D8D9E8D01969E8F8D8FD7
:103A40008D8D9E8D883191058CF31092E40110923A
:103A5000020210920102109204021092050291C01B
:103A60008CA1813009F088C01092020210920102EC
:103A700080E00E94EA1681E00E941E0E82EF90E034
:103A80000E94640F80E090E0AAEFB4E48B879C87EB
:103A9000AD87BE876B857C858D859E8520E030E077
:103AA0004AEF54E40E941F02DC01CB018F83988708
:103AB000A987BA876F81788589859A8520E030E06B
:103AC00040E85FE30E94790388232CF481E090E0D2
:103AD0009E838D833FC06F81788589859A8520E09C
:103AE0003FEF4FE757E40E94190318164CF56B851A
:103AF0007C858D859E8520E030E040E251E40E9487
:103B00001F02DC01CB01BC01CD010E944900DC0198
:103B1000CB019E838D830FC088EC90E09C838B83C8
:103B20008B819C810197F1F79C838B838D819E8192
:103B300001979E838D838D819E81009769F714C0C4
:103B40006F81788589859A850E944900DC01CB01C7
:103B50009E838D838D819E819A83898389819A81B9
:103B60000197F1F79A8389831092E4011092E4019E
:103B700081E08093050205C080910502813009F43F
:103B800048CD8091E401AE960FB6F894DEBF0FBE2B
:103B9000CDBFCF91DF9108950F931F93DF93CF9304
:103BA000CDB7DEB7C255D0400FB6F894DEBF0FBE1A
:103BB000CDBFFE01E15BFF4F91838083FE01E35B9C
:103BC000FF4F118210822DEC37E181E0B9010E9494
:103BD0006906FE01E15BFF4F8081918163969FAF93
:103BE0008EAF63976396EEADFFAD6397E230F1055C
:103BF00009F4F6C063968EAD9FAD6397833091054F
:103C000040F46396EEADFFAD6397E130F10591F0BE
:103C10009EC463968EAD9FAD63978330910509F482
:103C20009EC16396EEADFFAD6397E430F10509F4F4
:103C3000AAC28DC48091010290910202CC01A0E041
:103C4000B0E0BC01CD010E948F0FFE01ED5BFF4F84
:103C500080E090E0AAEFB3E480839183A283B383F2
:103C60008E01015C1F4FFE01ED5BFF4F6081718192
:103C70008281938120E030E04AEF54E40E941F02E9
:103C8000DC01CB01F80180839183A283B383FE0121
:103C9000FF96608171818281938120E030E040E86D
:103CA0005FE30E94790388232CF481E090E09EAFCB
:103CB0008DAF46C0FE01FF96608171818281938144
:103CC00020E03FEF4FE757E40E941903181664F510
:103CD000FE01ED5BFF4F608171818281938120E065
:103CE00030E040E251E40E941F02DC01CB01BC0144
:103CF000CD010E944900DC01CB019EAF8DAF0FC00A
:103D000088EC90E09CAF8BAF8BAD9CAD0197F1F749
:103D10009CAF8BAF8DAD9EAD01979EAF8DAF8DAD3E
:103D20009EAD009769F716C0FE01FF966081718114
:103D3000828193810E944900DC01CB019EAF8DAF4F
:103D40008DAD9EAD9AAF89AF89AD9AAD0197F1F770
:103D50009AAF89AF109202021092010281E00E9494
:103D60001E0E86E091E00E94640F81E060E00E94F8
:103D70000F1087E191E00E94640F89E092E00E94B9
:103D8000230B809109028F3FC1F380910902805378
:103D900080930A0280910A028A30C8F4809101025D
:103DA000909102029C01220F331FC901880F991FB5
:103DB000880F991F280F391F80910902882F90E0E2
:103DC000820F931FC097909302028093010280910B
:103DD0000102909102020E94DF1780930602B7C38E
:103DE0008091010290910202CC01A0E0B0E0BC0100
:103DF000CD010E948F0F80E090E0AAEFB3E48DAB7D
:103E00009EABAFABB8AF6DA97EA98FA998AD20E0EE
:103E100030E04AEF54E40E941F02DC01CB0189AB81
:103E20009AABABABBCAB69A97AA98BA99CA920E0E2
:103E300030E040E85FE30E94790388232CF481E0BE
:103E400090E098AB8FA73FC069A97AA98BA99CA9DC
:103E500020E03FEF4FE757E40E94190318164CF596
:103E60006DA97EA98FA998AD20E030E040E251E431
:103E70000E941F02DC01CB01BC01CD010E94490060
:103E8000DC01CB0198AB8FA70FC088EC90E09EA718
:103E90008DA78DA59EA50197F1F79EA78DA78FA54C
:103EA00098A9019798AB8FA78FA598A9009769F754
:103EB00014C069A97AA98BA99CA90E944900DC01B8
:103EC000CB0198AB8FA78FA598A99CA78BA78BA593
:103ED0009CA50197F1F79CA78BA710920202109264
:103EE000010281E00E941E0E88E291E00E94640FB0
:103EF00081E060E00E940F1085E391E00E94640F72
:103F000089E092E00E94230B809109028F3FC1F368
:103F100080910902805380930A0280910A028A30BC
:103F2000C8F480910102909102029C01220F331F7C
:103F3000C901880F991F880F991F280F391F809179
:103F40000902882F90E0820F931FC097909302027E
:103F500080930102809106020E94E918F8C28091C4
:103F6000010290910202CC01A0E0B0E0BC01CD01C1
:103F70000E948F0F80E090E0AAEFB3E48FA398A790
:103F8000A9A7BAA76FA178A589A59AA520E030E0D6
:103F90004AEF54E40E941F02DC01CB018BA39CA3D7
:103FA000ADA3BEA36BA17CA18DA19EA120E030E0BA
:103FB00040E85FE30E94790388232CF481E090E0DD
:103FC0009AA389A33FC06BA17CA18DA19EA120E0F3
:103FD0003FEF4FE757E40E94190318164CF56FA105
:103FE00078A589A59AA520E030E040E251E40E943E
:103FF0001F02DC01CB01BC01CD010E944900DC01A4
:10400000CB019AA389A30FC088EC90E098A38F8F6F
:104010008F8D98A10197F1F798A38F8F89A19AA10D
:1040200001979AA389A389A19AA1009769F714C05F
:104030006BA17CA18DA19EA10E944900DC01CB0156
:104040009AA389A389A19AA19E8F8D8F8D8D9E8D14
:104050000197F1F79E8F8D8F10920202109201024C
:104060008091E2019091E301FFEF8F3F9F0761F1A3
:104070008091E2019091E301CC01A0E0B0E028E85A
:1040800033E140E050E0BC01CD010E94F227DC01A9
:10409000CB01072E7AE0B695A795979587957A95E7
:1040A000D1F7702DFE01E55BFF4F91838083FE0108
:1040B000E55BFF4F808191812AE030E0B9010E94E9
:1040C0001128CB018093080281E00E941E0E8FE32D
:1040D00091E00E94640FFE01E75BFF4F80819181B8
:1040E000CC01A0E0B0E0BC01CD010E948F0F81E0C7
:1040F00060E00E940F1087E491E00E94640F81E06D
:1041000066E00E940F1080910802882F90E0A0E0E6
:10411000B0E0BC01CD010E948F0F89E092E00E94C7
:10412000230B809109028F3FC1F3809109028053D4
:1041300080930A0280910A028A30C8F480910102B9
:10414000909102029C01220F331FC901880F991F11
:10415000880F991F280F391F80910902882F90E03E
:10416000820F931FC0979093020280930102809167
:1041700001029091020290910602692F0E949F19FC
:1041800080930702E4C1109202021092010281E0C2
:104190000E941E0E80E690E00E94640F81E060E0C5
:1041A0000E940F108BE690E00E94640F89E092E07D
:1041B0000E94230B809109028F3FC1F38091090275
:1041C000805380930A0280910A028A30C8F4809159
:1041D0000102909102029C01220F331FC901880F36
:1041E000991F880F991F280F391F80910902882F66
:1041F00090E0820F931FC097909302028093010278
:1042000080910102909102028230910559F581E07E
:1042100064E040E00E943C0880E00E94EA16809141
:1042200006028130F9F4FE01E95BFF4F1182108232
:1042300011C080E06FE070E00E948810DE01A95B91
:10424000BF4FFE01E95BFF4F80819181019611967E
:104250009C938E93FE01E95BFF4F808191818831B1
:1042600091053CF31092E4011092020210920102B7
:104270006EC1109202021092010281E00E941E0E95
:104280008CEC90E00E94640F81E060E00E940F10CF
:104290008CED90E00E94640F80E090E0AAE7B4E427
:1042A000898F9A8FAB8FBC8F698D7A8D8B8D9C8D0A
:1042B00020E030E04AEF54E40E941F02DC01CB0111
:1042C0008D8B9E8BAF8BB88F6D897E898F89988DF2
:1042D00020E030E040E85FE30E94790388232CF47B
:1042E00081E090E09C8B8B8B3FC06D897E898F89AC
:1042F000988D20E03FEF4FE757E40E94190318160E
:104300004CF5698D7A8D8B8D9C8D20E030E040E2FC
:1043100051E40E941F02DC01CB01BC01CD010E94CF
:104320004900DC01CB019C8B8B8B0FC088EC90E0AB
:104330009A8B898B89899A890197F1F79A8B898B56
:104340008B899C8901979C8B8B8B8B899C8900978F
:1043500069F714C06D897E898F89988D0E94490004
:10436000DC01CB019C8B8B8B8B899C89988B8F87F5
:104370008F8598890197F1F7988B8F8785EE90E06C
:104380000E94640F81E00E941E0E88EE90E00E9461
:10439000640F89E092E00E94230BDE01A35BBF4F14
:1043A000FE01E35BFF4F80819181019611969C9302
:1043B0008E93809109028F3F49F4FE01E35BFF4F2A
:1043C0008081918123E18838920718F38091090256
:1043D000805380930A0280910A028A30C8F4809147
:1043E0000102909102029C01220F331FC901880F24
:1043F000991F880F991F280F391F80910902882F54
:1044000090E0820F931FC097909302028093010265
:1044100080910102909102028130910559F48AE65F
:104420000E94C10E81E00E94DF1780930602109265
:10443000050296C08AE60E94C10E109202021092F6
:10444000010280E00E94EA1681E00E941E0E82EFC7
:1044500090E00E94640F80E090E0AAEFB4E48B87C4
:104460009C87AD87BE876B857C858D859E8520E08A
:1044700030E04AEF54E40E941F02DC01CB018F833D
:104480009887A987BA876F81788589859A8520E082
:1044900030E040E85FE30E94790388232CF481E058
:1044A00090E09E838D833FC06F81788589859A8552
:1044B00020E03FEF4FE757E40E94190318164CF530
:1044C0006B857C858D859E8520E030E040E251E45F
:1044D0000E941F02DC01CB01BC01CD010E944900FA
:1044E000DC01CB019E838D830FC088EC90E09C8320
:1044F0008B838B819C810197F1F79C838B838D81CA
:104500009E8101979E838D838D819E81009769F79F
:1045100014C06F81788589859A850E944900DC01E5
:10452000CB019E838D838D819E819A83898389812E
:104530009A810197F1F79A8389831092E40110928E
:10454000070281E08093040281E08093050280915C
:104550000502813029F48091E401813009F489CE8B
:10456000CE5ADF4F0FB6F894DEBF0FBECDBFCF914E
:10457000DF911F910F9108950F931F93DF93CF93B6
:10458000CDB7DEB7CB55D0400FB6F894DEBF0FBE27
:10459000CDBF0E940F070E94320C0E9454160E9449
:1045A0008C160E94A305FE01E75AFF4F84EA94E7A8
:1045B00091838083FE01E85AFF4F86E08083FE01ED
:1045C000E95AFF4F83E08083FE01EA5AFF4F1082D1
:1045D000FE01EB5AFF4F1082FE01E95AFF4F808126
:1045E000833009F075C2FE01EA5AFF4F80818823AB
:1045F00009F06EC286E591E00E94640F81E060E000
:104600000E940F108CED95E00E94D81689E092E090
:104610000E94230B809109028F3FC1F38091090210
:10462000805380930A0280910A028A3008F0E3C026
:1046300080910102909102029C01220F331FC90157
:10464000880F991F880F991F280F391F8091090221
:10465000882F90E0820F931FC0979093020280935F
:104660000102809109020E94C10EFE01EF5AFF4F24
:1046700080E090E0A8ECB2E480839183A283B383CE
:104680008E01035B1F4FFE01EF5AFF4F6081718166
:104690008281938120E030E04AEF54E40E941F02BF
:1046A000DC01CB01F80180839183A283B383FE01F7
:1046B000E35BFF4F608171818281938120E030E074
:1046C00040E85FE30E947903882344F4FE01E55B40
:1046D000FF4F81E090E09183808364C0FE01E35B43
:1046E000FF4F608171818281938120E03FEF4FE72E
:1046F00057E40E94190318160CF043C0FE01EF5A4C
:10470000FF4F608171818281938120E030E040E23F
:1047100051E40E941F02DC01CB018E01055B1F4F9B
:10472000BC01CD010E944900DC01CB01F80191835D
:1047300080831FC0FE01E75BFF4F88EC90E0918310
:104740008083FE01E75BFF4F808191810197F1F744
:10475000FE01E75BFF4F91838083DE01A55BBF4FC6
:10476000FE01E55BFF4F80819181019711969C933B
:104770008E93FE01E55BFF4F808191810097D1F61A
:1047800027C08E01055B1F4FFE01E35BFF4F608179
:104790007181828193810E944900DC01CB01F80183
:1047A00091838083DE01A95BBF4FFE01E55BFF4F74
:1047B000808191818D939C93FE01E95BFF4F808105
:1047C00091810197F1F7FE01E95BFF4F91838083AF
:1047D000FE01EB5AFF4F81E060810E940F108AE2D8
:1047E0000E94C10EDE01AB5ABF4FFE01EB5AFF4FD4
:1047F00080818F5F8C93FE01E85AFF4F808181306A
:1048000051F0DE01A85ABF4FFE01E85AFF4F8081E8
:1048100081508C93F7CE8091010290910202FE01AB
:10482000E75AFF4F208131818217930709F0B9C001
:10483000FE01EB5AFF4F1082109202021092010209
:10484000FE01EA5AFF4F81E08083FE01E85AFF4FE4
:1048500086E0808381E00E941E0E80E063E00E947B
:104860000F1089E691E00E94640F81E060E00E94F1
:104870000F108AE791E00E94640FFE01ED5BFF4F8D
:1048800080E090E0AAEFB3E480839183A283B383B6
:104890008E01015C1F4FFE01ED5BFF4F6081718156
:1048A0008281938120E030E04AEF54E40E941F02AD
:1048B000DC01CB01F80180839183A283B383FE01E5
:1048C000FF96608171818281938120E030E040E831
:1048D0005FE30E94790388232CF481E090E09EAF8F
:1048E0008DAF46C0FE01FF96608171818281938108
:1048F00020E03FEF4FE757E40E941903181664F5D4
:10490000FE01ED5BFF4F608171818281938120E028
:1049100030E040E251E40E941F02DC01CB01BC0107
:10492000CD010E944900DC01CB019EAF8DAF0FC0CD
:1049300088EC90E09CAF8BAF8BAD9CAD0197F1F70D
:104940009CAF8BAF8DAD9EAD01979EAF8DAF8DAD02
:104950009EAD009769F716C0FE01FF9660817181D8
:10496000828193810E944900DC01CB019EAF8DAF13
:104970008DAD9EAD9AAF89AF89AD9AAD0197F1F734
:104980009AAF89AF0E94F8160E9416178091010213
:10499000909102020E94CC1D10920202109201021C
:1049A000F3CF8CED95E00E94D816DE01A95ABF4FD7
:1049B000FE01E95AFF4F808181508C9381E00E9473
:1049C0001E0E80E063E00E940F1084E891E00E94D8
:1049D000640F80E090E0AAE7B4E48DAB9EABAFAB90
:1049E000B8AF6DA97EA98FA998AD20E030E04AEF5D
:1049F00054E40E941F02DC01CB0189AB9AABABAB44
:104A0000BCAB69A97AA98BA99CA920E030E040E859
:104A10005FE30E94790388232CF481E090E098AB57
:104A20008FA73FC069A97AA98BA99CA920E03FEF75
:104A30004FE757E40E94190318164CF56DA97EA99B
:104A40008FA998AD20E030E040E251E40E941F02BF
:104A5000DC01CB01BC01CD010E944900DC01CB018E
:104A600098AB8FA70FC088EC90E09EA78DA78DA56F
:104A70009EA50197F1F79EA78DA78FA598A90197ED
:104A800098AB8FA78FA598A9009769F714C069A95B
:104A90007AA98BA99CA90E944900DC01CB0198ABA3
:104AA0008FA78FA598A99CA78BA78BA59CA50197DD
:104AB000F1F79CA78BA781E00E941E0EFE01E85A29
:104AC000FF4F86E08083109202021092010284CD93
:104AD000FE01E95AFF4F8081833008F02CC2FE01AD
:104AE000E95AFF4F8081882309F425C2FE01EA5A62
:104AF000FF4F8081882309F01EC280E063E00E949E
:104B00000F1083E991E00E94640F81E060E00E9451
:104B10000F10FE01EB5AFF4F10828CED95E00E94C2
:104B2000D81689E092E00E94230B809109028F3F02
:104B3000C1F380910902805380930A0280910A0296
:104B40008A3008F0A2C080910102909102029C017B
:104B5000220F331FC901880F991F880F991F280F33
:104B6000391F80910902882F90E0820F931FC09710
:104B70009093020280930102809109020E94C10E6B
:104B800080E090E0A8ECB2E48FA398A7A9A7BAA709
:104B90006FA178A589A59AA520E030E04AEF54E4FA
:104BA0000E941F02DC01CB018BA39CA3ADA3BEA37B
:104BB0006BA17CA18DA19EA120E030E040E85FE3E5
:104BC0000E94790388232CF481E090E09AA389A3C2
:104BD0003FC06BA17CA18DA19EA120E03FEF4FE7DC
:104BE00057E40E94190318164CF56FA178A589A502
:104BF0009AA520E030E040E251E40E941F02DC016F
:104C0000CB01BC01CD010E944900DC01CB019AA37C
:104C100089A30FC088EC90E098A38F8F8F8D98A107
:104C20000197F1F798A38F8F89A19AA101979AA371
:104C300089A389A19AA1009769F714C06BA17CA1EF
:104C40008DA19EA10E944900DC01CB019AA389A3FA
:104C500089A19AA19E8F8D8F8D8D9E8D0197F1F7E1
:104C60009E8F8D8FFE01EB5AFF4F81E060810E9485
:104C70000F108AE20E94C10EDE01AB5ABF4FFE0147
:104C8000EB5AFF4F80818F5F8C93FE01E85AFF4FF4
:104C90008081813051F0DE01A85ABF4FFE01E85AF1
:104CA000FF4F808181508C9338CF80910102909189
:104CB0000202FE01E75AFF4F2081318182179307DC
:104CC00009F0A2C01092020210920102FE01EA5AFB
:104CD000FF4F81E08083FE01E85AFF4F86E080832A
:104CE00081E00E941E0E80E063E00E940F1080EAC7
:104CF00091E00E94640F81E060E00E940F1082EB5F
:104D000091E00E94640F80E090E0AAEFB3E4898F05
:104D10009A8FAB8FBC8F698D7A8D8B8D9C8D20E0A7
:104D200030E04AEF54E40E941F02DC01CB018D8B7E
:104D30009E8BAF8BB88F6D897E898F89988D20E08F
:104D400030E040E85FE30E94790388232CF481E09F
:104D500090E09C8B8B8B3FC06D897E898F89988D6D
:104D600020E03FEF4FE757E40E94190318164CF577
:104D7000698D7A8D8B8D9C8D20E030E040E251E48E
:104D80000E941F02DC01CB01BC01CD010E94490041
:104D9000DC01CB019C8B8B8B0FC088EC90E09A8B55
:104DA000898B89899A890197F1F79A8B898B8B89ED
:104DB0009C8901979C8B8B8B8B899C89009769F7C9
:104DC00014C06D897E898F89988D0E944900DC010D
:104DD000CB019C8B8B8B8B899C89988B8F878F8544
:104DE00098890197F1F7988B8F870E94F8160E9497
:104DF000161780910102909102020E94CC1D109220
:104E0000020210920102F3CF8CED95E00E94D816B9
:104E100081E00E941E0E80E063E00E940F108DEB87
:104E200091E00E94640F80E090E0AAE7B4E48B87F1
:104E30009C87AD87BE876B857C858D859E8520E0B0
:104E400030E04AEF54E40E941F02DC01CB018F8363
:104E50009887A987BA876F81788589859A8520E0A8
:104E600030E040E85FE30E94790388232CF481E07E
:104E700090E09E838D833FC06F81788589859A8578
:104E800020E03FEF4FE757E40E94190318164CF556
:104E90006B857C858D859E8520E030E040E251E485
:104EA0000E941F02DC01CB01BC01CD010E94490020
:104EB000DC01CB019E838D830FC088EC90E09C8346
:104EC0008B838B819C810197F1F79C838B838D81F0
:104ED0009E8101979E838D838D819E81009769F7C6
:104EE00014C06F81788589859A850E944900DC010C
:104EF000CB019E838D838D819E819A838983898155
:104F00009A810197F1F79A83898381E00E941E0EAE
:104F1000DE01A95ABF4FFE01E95AFF4F808181503F
:104F20008C93FE01E85AFF4F86E0808310920202C4
:104F30001092010251CBFE01E95AFF4F8081882374
:104F400009F04ACB8CED95E00E94D81684E067E02A
:104F500041E00E943C0881E067E041E00E943C089B
:104F60009E01255A3F4F84E066E0A9010E94440952
:104F700081E00E941E0E8DEC91E00E94640F08C03B
:104F80009E01255A3F4F84E066E0A9010E94440932
:104F9000FE01E55AFF4F8081813091F3FE01E85A0E
:104FA000FF4F86E08083FE01E95AFF4F83E0808354
:104FB000FE01EA5AFF4F1082109202021092010283
:104FC00084E067E040E00E943C0881E00E941E0E01
:104FD00081E067E040E00E943C08FE01EB5AFF4F91
:104FE0001082FACA629FD001739FF001829FE00D88
:104FF000F11D649FE00DF11D929FF00D839FF00D58
:10500000749FF00D659FF00D9927729FB00DE11D03
:10501000F91F639FB00DE11DF91FBD01CF011124E0
:105020000895AA1BBB1B51E107C0AA1FBB1FA617EF
:10503000B70710F0A61BB70B881F991F5A95A9F741
:1050400080959095BC01CD010895A1E21A2EAA1B6E
:10505000BB1BFD010DC0AA1FBB1FEE1FFF1FA21728
:10506000B307E407F50720F0A21BB30BE40BF50B25
:10507000661F771F881F991F1A9469F760957095AE
:10508000809590959B01AC01BD01CF01089597FBE0
:10509000092E05260ED057FD04D0D7DF0AD0001CFC
:1050A00038F450954095309521953F4F4F4F5F4FC5
:1050B0000895F6F790958095709561957F4F8F4F85
:1050C0009F4F08952F923F924F925F926F927F92DF
:1050D0008F929F92AF92BF92CF92DF92EF92FF9208
:1050E0000F931F93CF93DF93CDB7DEB7CA1BDB0BB4
:1050F0000FB6F894DEBF0FBECDBF09942A88398859
:1051000048885F846E847D848C849B84AA84B9845F
:10511000C884DF80EE80FD800C811B81AA81B9816B
:10512000CE0FD11D0FB6F894DEBF0FBECDBFED017F
:065130000895F894FFCF82
:1051360020315F6F7074696F6E7300325F547572E1
:105146006E204F666620416C6C0020312D57696ECB
:10515600646F7720322D4C454400332D41697263CC
:105166006F6E6420342D6261636B0020312D543DD7
:10517600323520322D543D33300020332D543D320C
:105186003220342D636F6E740020312D5475726E8B
:10519600204F464600332D6261636B002057696ECF
:1051A600646F77206973206F70656E00636C6F7330
:1051B600652069740021210020312D436C6F7365D1
:1051C600200020636F6E646974696F6E6572206378
:1051D6006C6F7365640020312D436C6F73652032EC
:1051E6002D66756C6C7900332D5061727469616C33
:1051F60020342D6261636B0020312D4F46462020FE
:10520600322D4F4E0020332D6261636B202000202B
:1052160054206F75743D00526F6F6D543D202020F1
:10522600312D7365740020456E746572207061734C
:1052360073776F7264203A2000636F7272656374CD
:105246002070617373776F726400446F6F72206FA2
:1052560070656E0057726F6E672070617373776F3B
:1052660072640054727920616761696E203A200089
:1052760020636F72726563742070617373776F72E7
:10528600640020446F6F72206F70656E0020577245
:105296006F6E672070617373776F72640020446F5E
:1052A6006F72206C6F636B65640000000000000085
:1052B6000000FFFF013132332335363738392B34BE
:0E52C6002A302D2A2F040506070001020300DE
:00000001FF
